{
  "_format": "hh-sol-artifact-1",
  "contractName": "NFTMarketplace",
  "sourceName": "contracts/NFTMarketplace.sol",
  "abi": [
    {
      "inputs": [],
      "stateMutability": "nonpayable",
      "type": "constructor"
    },
    {
      "anonymous": false,
      "inputs": [
        {
          "indexed": true,
          "internalType": "address",
          "name": "owner",
          "type": "address"
        },
        {
          "indexed": true,
          "internalType": "address",
          "name": "approved",
          "type": "address"
        },
        {
          "indexed": true,
          "internalType": "uint256",
          "name": "tokenId",
          "type": "uint256"
        }
      ],
      "name": "Approval",
      "type": "event"
    },
    {
      "anonymous": false,
      "inputs": [
        {
          "indexed": true,
          "internalType": "address",
          "name": "owner",
          "type": "address"
        },
        {
          "indexed": true,
          "internalType": "address",
          "name": "operator",
          "type": "address"
        },
        {
          "indexed": false,
          "internalType": "bool",
          "name": "approved",
          "type": "bool"
        }
      ],
      "name": "ApprovalForAll",
      "type": "event"
    },
    {
      "anonymous": false,
      "inputs": [
        {
          "indexed": true,
          "internalType": "uint256",
          "name": "listingId",
          "type": "uint256"
        },
        {
          "indexed": false,
          "internalType": "address",
          "name": "winner",
          "type": "address"
        },
        {
          "indexed": false,
          "internalType": "uint256",
          "name": "amount",
          "type": "uint256"
        }
      ],
      "name": "AuctionEnded",
      "type": "event"
    },
    {
      "anonymous": false,
      "inputs": [
        {
          "indexed": true,
          "internalType": "uint256",
          "name": "listingId",
          "type": "uint256"
        },
        {
          "indexed": true,
          "internalType": "address",
          "name": "bidder",
          "type": "address"
        },
        {
          "indexed": false,
          "internalType": "uint256",
          "name": "amount",
          "type": "uint256"
        }
      ],
      "name": "BidPlaced",
      "type": "event"
    },
    {
      "anonymous": false,
      "inputs": [
        {
          "indexed": true,
          "internalType": "uint256",
          "name": "listingId",
          "type": "uint256"
        },
        {
          "indexed": true,
          "internalType": "uint256",
          "name": "tokenId",
          "type": "uint256"
        },
        {
          "indexed": false,
          "internalType": "address",
          "name": "seller",
          "type": "address"
        },
        {
          "indexed": false,
          "internalType": "uint256",
          "name": "price",
          "type": "uint256"
        },
        {
          "indexed": false,
          "internalType": "enum NFTMarketplace.ListingType",
          "name": "listingType",
          "type": "uint8"
        },
        {
          "indexed": false,
          "internalType": "uint256",
          "name": "startPrice",
          "type": "uint256"
        },
        {
          "indexed": false,
          "internalType": "uint256",
          "name": "buyoutPrice",
          "type": "uint256"
        },
        {
          "indexed": false,
          "internalType": "uint256",
          "name": "endTime",
          "type": "uint256"
        }
      ],
      "name": "ListingCreated",
      "type": "event"
    },
    {
      "anonymous": false,
      "inputs": [
        {
          "indexed": true,
          "internalType": "uint256",
          "name": "listingId",
          "type": "uint256"
        },
        {
          "indexed": true,
          "internalType": "uint256",
          "name": "tokenId",
          "type": "uint256"
        },
        {
          "indexed": false,
          "internalType": "address",
          "name": "seller",
          "type": "address"
        },
        {
          "indexed": false,
          "internalType": "address",
          "name": "owner",
          "type": "address"
        },
        {
          "indexed": false,
          "internalType": "uint256",
          "name": "price",
          "type": "uint256"
        }
      ],
      "name": "ListingSold",
      "type": "event"
    },
    {
      "anonymous": false,
      "inputs": [
        {
          "indexed": true,
          "internalType": "uint256",
          "name": "tokenId",
          "type": "uint256"
        },
        {
          "indexed": true,
          "internalType": "address",
          "name": "liker",
          "type": "address"
        }
      ],
      "name": "NFTLiked",
      "type": "event"
    },
    {
      "anonymous": false,
      "inputs": [
        {
          "indexed": true,
          "internalType": "uint256",
          "name": "tokenId",
          "type": "uint256"
        },
        {
          "indexed": true,
          "internalType": "address",
          "name": "unliker",
          "type": "address"
        }
      ],
      "name": "NFTUnliked",
      "type": "event"
    },
    {
      "anonymous": false,
      "inputs": [
        {
          "indexed": true,
          "internalType": "address",
          "name": "from",
          "type": "address"
        },
        {
          "indexed": true,
          "internalType": "address",
          "name": "to",
          "type": "address"
        },
        {
          "indexed": true,
          "internalType": "uint256",
          "name": "tokenId",
          "type": "uint256"
        }
      ],
      "name": "Transfer",
      "type": "event"
    },
    {
      "inputs": [
        {
          "internalType": "address",
          "name": "to",
          "type": "address"
        },
        {
          "internalType": "uint256",
          "name": "tokenId",
          "type": "uint256"
        }
      ],
      "name": "approve",
      "outputs": [],
      "stateMutability": "nonpayable",
      "type": "function"
    },
    {
      "inputs": [
        {
          "internalType": "address",
          "name": "owner",
          "type": "address"
        }
      ],
      "name": "balanceOf",
      "outputs": [
        {
          "internalType": "uint256",
          "name": "",
          "type": "uint256"
        }
      ],
      "stateMutability": "view",
      "type": "function"
    },
    {
      "inputs": [
        {
          "internalType": "uint256",
          "name": "listingId",
          "type": "uint256"
        }
      ],
      "name": "createMarketSale",
      "outputs": [],
      "stateMutability": "payable",
      "type": "function"
    },
    {
      "inputs": [
        {
          "internalType": "string",
          "name": "tokenURI",
          "type": "string"
        },
        {
          "internalType": "uint256",
          "name": "price",
          "type": "uint256"
        },
        {
          "internalType": "enum NFTMarketplace.ListingType",
          "name": "listingType",
          "type": "uint8"
        },
        {
          "internalType": "uint256",
          "name": "startPrice",
          "type": "uint256"
        },
        {
          "internalType": "uint256",
          "name": "buyoutPrice",
          "type": "uint256"
        },
        {
          "internalType": "uint256",
          "name": "auctionDuration",
          "type": "uint256"
        }
      ],
      "name": "createToken",
      "outputs": [
        {
          "internalType": "uint256",
          "name": "",
          "type": "uint256"
        }
      ],
      "stateMutability": "payable",
      "type": "function"
    },
    {
      "inputs": [
        {
          "internalType": "uint256",
          "name": "listingId",
          "type": "uint256"
        }
      ],
      "name": "endAuction",
      "outputs": [],
      "stateMutability": "nonpayable",
      "type": "function"
    },
    {
      "inputs": [
        {
          "internalType": "uint256",
          "name": "listingId",
          "type": "uint256"
        }
      ],
      "name": "fetchListingBids",
      "outputs": [
        {
          "components": [
            {
              "internalType": "address",
              "name": "bidder",
              "type": "address"
            },
            {
              "internalType": "uint256",
              "name": "amount",
              "type": "uint256"
            },
            {
              "internalType": "uint256",
              "name": "timestamp",
              "type": "uint256"
            }
          ],
          "internalType": "struct NFTMarketplace.Bid[]",
          "name": "",
          "type": "tuple[]"
        }
      ],
      "stateMutability": "view",
      "type": "function"
    },
    {
      "inputs": [
        {
          "internalType": "address",
          "name": "user",
          "type": "address"
        }
      ],
      "name": "fetchNFTs",
      "outputs": [
        {
          "components": [
            {
              "internalType": "uint256",
              "name": "listingId",
              "type": "uint256"
            },
            {
              "internalType": "uint256",
              "name": "tokenId",
              "type": "uint256"
            },
            {
              "internalType": "address payable",
              "name": "seller",
              "type": "address"
            },
            {
              "internalType": "address payable",
              "name": "owner",
              "type": "address"
            },
            {
              "internalType": "uint256",
              "name": "price",
              "type": "uint256"
            },
            {
              "internalType": "enum NFTMarketplace.ListingType",
              "name": "listingType",
              "type": "uint8"
            },
            {
              "internalType": "uint256",
              "name": "startPrice",
              "type": "uint256"
            },
            {
              "internalType": "uint256",
              "name": "buyoutPrice",
              "type": "uint256"
            },
            {
              "internalType": "uint256",
              "name": "highestBid",
              "type": "uint256"
            },
            {
              "internalType": "address",
              "name": "highestBidder",
              "type": "address"
            },
            {
              "internalType": "uint256",
              "name": "endTime",
              "type": "uint256"
            },
            {
              "internalType": "bool",
              "name": "isActive",
              "type": "bool"
            },
            {
              "internalType": "uint256",
              "name": "likesCount",
              "type": "uint256"
            }
          ],
          "internalType": "struct NFTMarketplace.Listing[]",
          "name": "activeListings",
          "type": "tuple[]"
        },
        {
          "components": [
            {
              "internalType": "uint256",
              "name": "listingId",
              "type": "uint256"
            },
            {
              "internalType": "uint256",
              "name": "tokenId",
              "type": "uint256"
            },
            {
              "internalType": "address payable",
              "name": "seller",
              "type": "address"
            },
            {
              "internalType": "address payable",
              "name": "owner",
              "type": "address"
            },
            {
              "internalType": "uint256",
              "name": "price",
              "type": "uint256"
            },
            {
              "internalType": "enum NFTMarketplace.ListingType",
              "name": "listingType",
              "type": "uint8"
            },
            {
              "internalType": "uint256",
              "name": "startPrice",
              "type": "uint256"
            },
            {
              "internalType": "uint256",
              "name": "buyoutPrice",
              "type": "uint256"
            },
            {
              "internalType": "uint256",
              "name": "highestBid",
              "type": "uint256"
            },
            {
              "internalType": "address",
              "name": "highestBidder",
              "type": "address"
            },
            {
              "internalType": "uint256",
              "name": "endTime",
              "type": "uint256"
            },
            {
              "internalType": "bool",
              "name": "isActive",
              "type": "bool"
            },
            {
              "internalType": "uint256",
              "name": "likesCount",
              "type": "uint256"
            }
          ],
          "internalType": "struct NFTMarketplace.Listing[]",
          "name": "userListings",
          "type": "tuple[]"
        },
        {
          "components": [
            {
              "internalType": "uint256",
              "name": "listingId",
              "type": "uint256"
            },
            {
              "internalType": "uint256",
              "name": "tokenId",
              "type": "uint256"
            },
            {
              "internalType": "address payable",
              "name": "seller",
              "type": "address"
            },
            {
              "internalType": "address payable",
              "name": "owner",
              "type": "address"
            },
            {
              "internalType": "uint256",
              "name": "price",
              "type": "uint256"
            },
            {
              "internalType": "enum NFTMarketplace.ListingType",
              "name": "listingType",
              "type": "uint8"
            },
            {
              "internalType": "uint256",
              "name": "startPrice",
              "type": "uint256"
            },
            {
              "internalType": "uint256",
              "name": "buyoutPrice",
              "type": "uint256"
            },
            {
              "internalType": "uint256",
              "name": "highestBid",
              "type": "uint256"
            },
            {
              "internalType": "address",
              "name": "highestBidder",
              "type": "address"
            },
            {
              "internalType": "uint256",
              "name": "endTime",
              "type": "uint256"
            },
            {
              "internalType": "bool",
              "name": "isActive",
              "type": "bool"
            },
            {
              "internalType": "uint256",
              "name": "likesCount",
              "type": "uint256"
            }
          ],
          "internalType": "struct NFTMarketplace.Listing[]",
          "name": "userOwned",
          "type": "tuple[]"
        },
        {
          "internalType": "uint256[]",
          "name": "likedNFTs",
          "type": "uint256[]"
        }
      ],
      "stateMutability": "view",
      "type": "function"
    },
    {
      "inputs": [
        {
          "internalType": "uint256",
          "name": "tokenId",
          "type": "uint256"
        }
      ],
      "name": "getApproved",
      "outputs": [
        {
          "internalType": "address",
          "name": "",
          "type": "address"
        }
      ],
      "stateMutability": "view",
      "type": "function"
    },
    {
      "inputs": [],
      "name": "getListingPrice",
      "outputs": [
        {
          "internalType": "uint256",
          "name": "",
          "type": "uint256"
        }
      ],
      "stateMutability": "view",
      "type": "function"
    },
    {
      "inputs": [
        {
          "internalType": "uint256",
          "name": "tokenId",
          "type": "uint256"
        },
        {
          "internalType": "address",
          "name": "user",
          "type": "address"
        }
      ],
      "name": "hasLiked",
      "outputs": [
        {
          "internalType": "bool",
          "name": "",
          "type": "bool"
        }
      ],
      "stateMutability": "view",
      "type": "function"
    },
    {
      "inputs": [
        {
          "internalType": "address",
          "name": "owner",
          "type": "address"
        },
        {
          "internalType": "address",
          "name": "operator",
          "type": "address"
        }
      ],
      "name": "isApprovedForAll",
      "outputs": [
        {
          "internalType": "bool",
          "name": "",
          "type": "bool"
        }
      ],
      "stateMutability": "view",
      "type": "function"
    },
    {
      "inputs": [
        {
          "internalType": "uint256",
          "name": "tokenId",
          "type": "uint256"
        }
      ],
      "name": "likeNFT",
      "outputs": [],
      "stateMutability": "nonpayable",
      "type": "function"
    },
    {
      "inputs": [],
      "name": "name",
      "outputs": [
        {
          "internalType": "string",
          "name": "",
          "type": "string"
        }
      ],
      "stateMutability": "view",
      "type": "function"
    },
    {
      "inputs": [
        {
          "internalType": "uint256",
          "name": "tokenId",
          "type": "uint256"
        }
      ],
      "name": "ownerOf",
      "outputs": [
        {
          "internalType": "address",
          "name": "",
          "type": "address"
        }
      ],
      "stateMutability": "view",
      "type": "function"
    },
    {
      "inputs": [
        {
          "internalType": "uint256",
          "name": "listingId",
          "type": "uint256"
        }
      ],
      "name": "placeBid",
      "outputs": [],
      "stateMutability": "payable",
      "type": "function"
    },
    {
      "inputs": [
        {
          "internalType": "uint256",
          "name": "tokenId",
          "type": "uint256"
        },
        {
          "internalType": "uint256",
          "name": "oldListingId",
          "type": "uint256"
        },
        {
          "internalType": "uint256",
          "name": "price",
          "type": "uint256"
        },
        {
          "internalType": "enum NFTMarketplace.ListingType",
          "name": "listingType",
          "type": "uint8"
        },
        {
          "internalType": "uint256",
          "name": "startPrice",
          "type": "uint256"
        },
        {
          "internalType": "uint256",
          "name": "buyoutPrice",
          "type": "uint256"
        },
        {
          "internalType": "uint256",
          "name": "auctionDuration",
          "type": "uint256"
        }
      ],
      "name": "resellToken",
      "outputs": [],
      "stateMutability": "payable",
      "type": "function"
    },
    {
      "inputs": [
        {
          "internalType": "address",
          "name": "from",
          "type": "address"
        },
        {
          "internalType": "address",
          "name": "to",
          "type": "address"
        },
        {
          "internalType": "uint256",
          "name": "tokenId",
          "type": "uint256"
        }
      ],
      "name": "safeTransferFrom",
      "outputs": [],
      "stateMutability": "nonpayable",
      "type": "function"
    },
    {
      "inputs": [
        {
          "internalType": "address",
          "name": "from",
          "type": "address"
        },
        {
          "internalType": "address",
          "name": "to",
          "type": "address"
        },
        {
          "internalType": "uint256",
          "name": "tokenId",
          "type": "uint256"
        },
        {
          "internalType": "bytes",
          "name": "data",
          "type": "bytes"
        }
      ],
      "name": "safeTransferFrom",
      "outputs": [],
      "stateMutability": "nonpayable",
      "type": "function"
    },
    {
      "inputs": [
        {
          "internalType": "address",
          "name": "operator",
          "type": "address"
        },
        {
          "internalType": "bool",
          "name": "approved",
          "type": "bool"
        }
      ],
      "name": "setApprovalForAll",
      "outputs": [],
      "stateMutability": "nonpayable",
      "type": "function"
    },
    {
      "inputs": [
        {
          "internalType": "bytes4",
          "name": "interfaceId",
          "type": "bytes4"
        }
      ],
      "name": "supportsInterface",
      "outputs": [
        {
          "internalType": "bool",
          "name": "",
          "type": "bool"
        }
      ],
      "stateMutability": "view",
      "type": "function"
    },
    {
      "inputs": [],
      "name": "symbol",
      "outputs": [
        {
          "internalType": "string",
          "name": "",
          "type": "string"
        }
      ],
      "stateMutability": "view",
      "type": "function"
    },
    {
      "inputs": [
        {
          "internalType": "uint256",
          "name": "tokenId",
          "type": "uint256"
        }
      ],
      "name": "tokenURI",
      "outputs": [
        {
          "internalType": "string",
          "name": "",
          "type": "string"
        }
      ],
      "stateMutability": "view",
      "type": "function"
    },
    {
      "inputs": [
        {
          "internalType": "address",
          "name": "from",
          "type": "address"
        },
        {
          "internalType": "address",
          "name": "to",
          "type": "address"
        },
        {
          "internalType": "uint256",
          "name": "tokenId",
          "type": "uint256"
        }
      ],
      "name": "transferFrom",
      "outputs": [],
      "stateMutability": "nonpayable",
      "type": "function"
    },
    {
      "inputs": [
        {
          "internalType": "uint256",
          "name": "tokenId",
          "type": "uint256"
        }
      ],
      "name": "unlikeNFT",
      "outputs": [],
      "stateMutability": "nonpayable",
      "type": "function"
    },
    {
      "inputs": [
        {
          "internalType": "uint256",
          "name": "_listingPrice",
          "type": "uint256"
        }
      ],
      "name": "updateListingPrice",
      "outputs": [],
      "stateMutability": "payable",
      "type": "function"
    }
  ],
  "bytecode": "0x60806040526658d15e17628000600c553480156200001c57600080fd5b506040518060400160405280601081526020017f4d65746143616e76617320546f6b656e000000000000000000000000000000008152506040518060400160405280600381526020017f4d435400000000000000000000000000000000000000000000000000000000008152508160009080519060200190620000a19291906200010c565b508060019080519060200190620000ba9291906200010c565b505050600160078190555033600b60006101000a81548173ffffffffffffffffffffffffffffffffffffffff021916908373ffffffffffffffffffffffffffffffffffffffff16021790555062000221565b8280546200011a90620001eb565b90600052602060002090601f0160209004810192826200013e57600085556200018a565b82601f106200015957805160ff19168380011785556200018a565b828001600101855582156200018a579182015b82811115620001895782518255916020019190600101906200016c565b5b5090506200019991906200019d565b5090565b5b80821115620001b85760008160009055506001016200019e565b5090565b7f4e487b7100000000000000000000000000000000000000000000000000000000600052602260045260246000fd5b600060028204905060018216806200020457607f821691505b602082108114156200021b576200021a620001bc565b5b50919050565b615d8280620002316000396000f3fe6080604052600436106101665760003560e01c806370a08231116100d1578063ae677aa31161008a578063be9af53611610064578063be9af5361461053d578063c87b56dd14610559578063da472a0f14610596578063e985e9c5146105bf57610166565b8063ae677aa3146104cf578063b88d4fde146104eb578063b9a2de3a1461051457610166565b806370a08231146103bc5780637573bbb4146103f95780638fb7092c1461042257806395d89b411461045f5780639979ef451461048a578063a22cb465146104a657610166565b806323b872dd1161012357806323b872dd1461029457806342842e0e146102bd5780634e8694c7146102e65780635a444944146103235780636352211e146103635780636f430d4c146103a057610166565b806301ffc9a71461016b57806306fdde03146101a8578063081812fc146101d3578063095ea7b3146102105780630beaf1141461023957806312e8558514610269575b600080fd5b34801561017757600080fd5b50610192600480360381019061018d9190613da3565b6105fc565b60405161019f9190613deb565b60405180910390f35b3480156101b457600080fd5b506101bd6106de565b6040516101ca9190613e9f565b60405180910390f35b3480156101df57600080fd5b506101fa60048036038101906101f59190613ef7565b610770565b6040516102079190613f65565b60405180910390f35b34801561021c57600080fd5b5061023760048036038101906102329190613fac565b6107b6565b005b610253600480360381019061024e9190614146565b6108ce565b60405161026091906141fe565b60405180910390f35b34801561027557600080fd5b5061027e610918565b60405161028b91906141fe565b60405180910390f35b3480156102a057600080fd5b506102bb60048036038101906102b69190614219565b610922565b005b3480156102c957600080fd5b506102e460048036038101906102df9190614219565b610982565b005b3480156102f257600080fd5b5061030d60048036038101906103089190613ef7565b6109a2565b60405161031a919061437b565b60405180910390f35b34801561032f57600080fd5b5061034a6004803603810190610345919061439d565b610a7e565b60405161035a94939291906146db565b60405180910390f35b34801561036f57600080fd5b5061038a60048036038101906103859190613ef7565b611435565b6040516103979190613f65565b60405180910390f35b6103ba60048036038101906103b5919061473c565b6114e7565b005b3480156103c857600080fd5b506103e360048036038101906103de919061439d565b6115d4565b6040516103f091906141fe565b60405180910390f35b34801561040557600080fd5b50610420600480360381019061041b9190613ef7565b61168c565b005b34801561042e57600080fd5b50610449600480360381019061044491906147de565b611982565b6040516104569190613deb565b60405180910390f35b34801561046b57600080fd5b506104746119ea565b6040516104819190613e9f565b60405180910390f35b6104a4600480360381019061049f9190613ef7565b611a7c565b005b3480156104b257600080fd5b506104cd60048036038101906104c8919061484a565b611f78565b005b6104e960048036038101906104e49190613ef7565b611f8e565b005b3480156104f757600080fd5b50610512600480360381019061050d919061492b565b612028565b005b34801561052057600080fd5b5061053b60048036038101906105369190613ef7565b61208a565b005b61055760048036038101906105529190613ef7565b61238f565b005b34801561056557600080fd5b50610580600480360381019061057b9190613ef7565b61268c565b60405161058d9190613e9f565b60405180910390f35b3480156105a257600080fd5b506105bd60048036038101906105b89190613ef7565b61279f565b005b3480156105cb57600080fd5b506105e660048036038101906105e191906149ae565b6129f5565b6040516105f39190613deb565b60405180910390f35b60007f80ac58cd000000000000000000000000000000000000000000000000000000007bffffffffffffffffffffffffffffffffffffffffffffffffffffffff1916827bffffffffffffffffffffffffffffffffffffffffffffffffffffffff191614806106c757507f5b5e139f000000000000000000000000000000000000000000000000000000007bffffffffffffffffffffffffffffffffffffffffffffffffffffffff1916827bffffffffffffffffffffffffffffffffffffffffffffffffffffffff1916145b806106d757506106d682612a89565b5b9050919050565b6060600080546106ed90614a1d565b80601f016020809104026020016040519081016040528092919081815260200182805461071990614a1d565b80156107665780601f1061073b57610100808354040283529160200191610766565b820191906000526020600020905b81548152906001019060200180831161074957829003601f168201915b5050505050905090565b600061077b82612af3565b6004600083815260200190815260200160002060009054906101000a900473ffffffffffffffffffffffffffffffffffffffff169050919050565b60006107c182611435565b90508073ffffffffffffffffffffffffffffffffffffffff168373ffffffffffffffffffffffffffffffffffffffff161415610832576040517f08c379a000000000000000000000000000000000000000000000000000000000815260040161082990614ac1565b60405180910390fd5b8073ffffffffffffffffffffffffffffffffffffffff16610851612b3e565b73ffffffffffffffffffffffffffffffffffffffff161480610880575061087f8161087a612b3e565b6129f5565b5b6108bf576040517f08c379a00000000000000000000000000000000000000000000000000000000081526004016108b690614b53565b60405180910390fd5b6108c98383612b46565b505050565b60006108da6008612bff565b60006108e66008612c15565b90506108f23382612c23565b6108fc8189612dfd565b61090a818888888888612e71565b809150509695505050505050565b6000600c54905090565b61093361092d612b3e565b82613301565b610972576040517f08c379a000000000000000000000000000000000000000000000000000000000815260040161096990614be5565b60405180910390fd5b61097d838383613396565b505050565b61099d83838360405180602001604052806000815250612028565b505050565b6060600e6000838152602001908152602001600020805480602002602001604051908101604052809291908181526020016000905b82821015610a7357838290600052602060002090600302016040518060600160405290816000820160009054906101000a900473ffffffffffffffffffffffffffffffffffffffff1673ffffffffffffffffffffffffffffffffffffffff1673ffffffffffffffffffffffffffffffffffffffff16815260200160018201548152602001600282015481525050815260200190600101906109d7565b505050509050919050565b6060806060806000610a906009612c15565b9050600080600080600190505b848111610bd6576000600d6000838152602001908152602001600020905080600b0160009054906101000a900460ff1615610ae1578480610add90614c34565b9550505b8a73ffffffffffffffffffffffffffffffffffffffff168160020160009054906101000a900473ffffffffffffffffffffffffffffffffffffffff1673ffffffffffffffffffffffffffffffffffffffff16148015610b4e575080600b0160009054906101000a900460ff165b15610b62578380610b5e90614c34565b9450505b6000816001015414158015610bae57508a73ffffffffffffffffffffffffffffffffffffffff16610b968260010154611435565b73ffffffffffffffffffffffffffffffffffffffff16145b15610bc2578280610bbe90614c34565b9350505b508080610bce90614c34565b915050610a9d565b508267ffffffffffffffff811115610bf157610bf0613ff6565b5b604051908082528060200260200182016040528015610c2a57816020015b610c17613bd6565b815260200190600190039081610c0f5790505b5097508167ffffffffffffffff811115610c4757610c46613ff6565b5b604051908082528060200260200182016040528015610c8057816020015b610c6d613bd6565b815260200190600190039081610c655790505b5096508067ffffffffffffffff811115610c9d57610c9c613ff6565b5b604051908082528060200260200182016040528015610cd657816020015b610cc3613bd6565b815260200190600190039081610cbb5790505b509550600080600080600190505b878111611396576000600d6000838152602001908152602001600020905080600b0160009054906101000a900460ff1615610efb5780604051806101a001604052908160008201548152602001600182015481526020016002820160009054906101000a900473ffffffffffffffffffffffffffffffffffffffff1673ffffffffffffffffffffffffffffffffffffffff1673ffffffffffffffffffffffffffffffffffffffff1681526020016003820160009054906101000a900473ffffffffffffffffffffffffffffffffffffffff1673ffffffffffffffffffffffffffffffffffffffff1673ffffffffffffffffffffffffffffffffffffffff168152602001600482015481526020016005820160009054906101000a900460ff166001811115610e1557610e14614417565b5b6001811115610e2757610e26614417565b5b81526020016006820154815260200160078201548152602001600882015481526020016009820160009054906101000a900473ffffffffffffffffffffffffffffffffffffffff1673ffffffffffffffffffffffffffffffffffffffff1673ffffffffffffffffffffffffffffffffffffffff168152602001600a8201548152602001600b820160009054906101000a900460ff16151515158152602001600c820154815250508d8681518110610ee157610ee0614c7d565b5b60200260200101819052508480610ef790614c34565b9550505b8d73ffffffffffffffffffffffffffffffffffffffff168160020160009054906101000a900473ffffffffffffffffffffffffffffffffffffffff1673ffffffffffffffffffffffffffffffffffffffff16148015610f68575080600b0160009054906101000a900460ff165b1561114f5780604051806101a001604052908160008201548152602001600182015481526020016002820160009054906101000a900473ffffffffffffffffffffffffffffffffffffffff1673ffffffffffffffffffffffffffffffffffffffff1673ffffffffffffffffffffffffffffffffffffffff1681526020016003820160009054906101000a900473ffffffffffffffffffffffffffffffffffffffff1673ffffffffffffffffffffffffffffffffffffffff1673ffffffffffffffffffffffffffffffffffffffff168152602001600482015481526020016005820160009054906101000a900460ff16600181111561106957611068614417565b5b600181111561107b5761107a614417565b5b81526020016006820154815260200160078201548152602001600882015481526020016009820160009054906101000a900473ffffffffffffffffffffffffffffffffffffffff1673ffffffffffffffffffffffffffffffffffffffff1673ffffffffffffffffffffffffffffffffffffffff168152602001600a8201548152602001600b820160009054906101000a900460ff16151515158152602001600c820154815250508c858151811061113557611134614c7d565b5b6020026020010181905250838061114b90614c34565b9450505b600081600101541415801561119b57508d73ffffffffffffffffffffffffffffffffffffffff166111838260010154611435565b73ffffffffffffffffffffffffffffffffffffffff16145b156113825780604051806101a001604052908160008201548152602001600182015481526020016002820160009054906101000a900473ffffffffffffffffffffffffffffffffffffffff1673ffffffffffffffffffffffffffffffffffffffff1673ffffffffffffffffffffffffffffffffffffffff1681526020016003820160009054906101000a900473ffffffffffffffffffffffffffffffffffffffff1673ffffffffffffffffffffffffffffffffffffffff1673ffffffffffffffffffffffffffffffffffffffff168152602001600482015481526020016005820160009054906101000a900460ff16600181111561129c5761129b614417565b5b60018111156112ae576112ad614417565b5b81526020016006820154815260200160078201548152602001600882015481526020016009820160009054906101000a900473ffffffffffffffffffffffffffffffffffffffff1673ffffffffffffffffffffffffffffffffffffffff1673ffffffffffffffffffffffffffffffffffffffff168152602001600a8201548152602001600b820160009054906101000a900460ff16151515158152602001600c820154815250508b848151811061136857611367614c7d565b5b6020026020010181905250828061137e90614c34565b9350505b50808061138e90614c34565b915050610ce4565b50601060008d73ffffffffffffffffffffffffffffffffffffffff1673ffffffffffffffffffffffffffffffffffffffff16815260200190815260200160002080548060200260200160405190810160405280929190818152602001828054801561142057602002820191906000526020600020905b81548152602001906001019080831161140c575b50505050509750505050505050509193509193565b6000806002600084815260200190815260200160002060009054906101000a900473ffffffffffffffffffffffffffffffffffffffff169050600073ffffffffffffffffffffffffffffffffffffffff168173ffffffffffffffffffffffffffffffffffffffff1614156114de576040517f08c379a00000000000000000000000000000000000000000000000000000000081526004016114d590614cf8565b60405180910390fd5b80915050919050565b3373ffffffffffffffffffffffffffffffffffffffff1661150788611435565b73ffffffffffffffffffffffffffffffffffffffff161461155d576040517f08c379a000000000000000000000000000000000000000000000000000000000815260040161155490614d64565b60405180910390fd5b600c5434146115a1576040517f08c379a000000000000000000000000000000000000000000000000000000000815260040161159890614dd0565b60405180910390fd5b6000600d6000888152602001908152602001600020600101819055506115cb878686868686612e71565b50505050505050565b60008073ffffffffffffffffffffffffffffffffffffffff168273ffffffffffffffffffffffffffffffffffffffff161415611645576040517f08c379a000000000000000000000000000000000000000000000000000000000815260040161163c90614e62565b60405180910390fd5b600360008373ffffffffffffffffffffffffffffffffffffffff1673ffffffffffffffffffffffffffffffffffffffff168152602001908152602001600020549050919050565b600f600082815260200190815260200160002060003373ffffffffffffffffffffffffffffffffffffffff1673ffffffffffffffffffffffffffffffffffffffff16815260200190815260200160002060009054906101000a900460ff16611729576040517f08c379a000000000000000000000000000000000000000000000000000000000815260040161172090614ece565b60405180910390fd5b6000600f600083815260200190815260200160002060003373ffffffffffffffffffffffffffffffffffffffff1673ffffffffffffffffffffffffffffffffffffffff16815260200190815260200160002060006101000a81548160ff0219169083151502179055506000601060003373ffffffffffffffffffffffffffffffffffffffff1673ffffffffffffffffffffffffffffffffffffffff168152602001908152602001600020905060005b818054905081101561189757828282815481106117f8576117f7614c7d565b5b9060005260206000200154141561188457816001838054905061181b9190614eee565b8154811061182c5761182b614c7d565b5b906000526020600020015482828154811061184a57611849614c7d565b5b90600052602060002001819055508180548061186957611868614f22565b5b60019003818190600052602060002001600090559055611897565b808061188f90614c34565b9150506117d8565b506000600190505b6118a96009612c15565b81116119395782600d6000838152602001908152602001600020600101541480156118f45750600d6000828152602001908152602001600020600b0160009054906101000a900460ff165b1561192657600d6000828152602001908152602001600020600c01600081548092919061192090614f51565b91905055505b808061193190614c34565b91505061189f565b503373ffffffffffffffffffffffffffffffffffffffff16827f3bc2dc3dce6ae9640a5a232959b49f7509a3da5eb8348e6d04e2bcbe4aade44b60405160405180910390a35050565b6000600f600084815260200190815260200160002060008373ffffffffffffffffffffffffffffffffffffffff1673ffffffffffffffffffffffffffffffffffffffff16815260200190815260200160002060009054906101000a900460ff16905092915050565b6060600180546119f990614a1d565b80601f0160208091040260200160405190810160405280929190818152602001828054611a2590614a1d565b8015611a725780601f10611a4757610100808354040283529160200191611a72565b820191906000526020600020905b815481529060010190602001808311611a5557829003601f168201915b5050505050905090565b60026007541415611ac2576040517f08c379a0000000000000000000000000000000000000000000000000000000008152600401611ab990614fc7565b60405180910390fd5b60026007819055506000600d6000838152602001908152602001600020905080600b0160009054906101000a900460ff168015611b335750600180811115611b0d57611b0c614417565b5b8160050160009054906101000a900460ff166001811115611b3157611b30614417565b5b145b611b72576040517f08c379a0000000000000000000000000000000000000000000000000000000008152600401611b6990615033565b60405180910390fd5b80600a01544210611bb8576040517f08c379a0000000000000000000000000000000000000000000000000000000008152600401611baf9061509f565b60405180910390fd5b80600801543411611bfe576040517f08c379a0000000000000000000000000000000000000000000000000000000008152600401611bf59061510b565b60405180910390fd5b8060060154341015611c45576040517f08c379a0000000000000000000000000000000000000000000000000000000008152600401611c3c90615177565b60405180910390fd5b600073ffffffffffffffffffffffffffffffffffffffff168160090160009054906101000a900473ffffffffffffffffffffffffffffffffffffffff1673ffffffffffffffffffffffffffffffffffffffff1614611d0d578060090160009054906101000a900473ffffffffffffffffffffffffffffffffffffffff1673ffffffffffffffffffffffffffffffffffffffff166108fc82600801549081150290604051600060405180830381858888f19350505050158015611d0b573d6000803e3d6000fd5b505b348160080181905550338160090160006101000a81548173ffffffffffffffffffffffffffffffffffffffff021916908373ffffffffffffffffffffffffffffffffffffffff160217905550600e600083815260200190815260200160002060405180606001604052803373ffffffffffffffffffffffffffffffffffffffff16815260200134815260200142815250908060018154018082558091505060019003906000526020600020906003020160009091909190915060008201518160000160006101000a81548173ffffffffffffffffffffffffffffffffffffffff021916908373ffffffffffffffffffffffffffffffffffffffff160217905550602082015181600101556040820151816002015550503373ffffffffffffffffffffffffffffffffffffffff16827f0e54eff26401bf69b81b26f60bd85ef47f5d85275c1d268d84f68d6897431c4734604051611e6a91906141fe565b60405180910390a36000816007015414158015611e8b575080600701543410155b15611f6c57600081600b0160006101000a81548160ff021916908315150217905550611ebc30338360010154613396565b8060020160009054906101000a900473ffffffffffffffffffffffffffffffffffffffff1673ffffffffffffffffffffffffffffffffffffffff166108fc349081150290604051600060405180830381858888f19350505050158015611f26573d6000803e3d6000fd5b50611f31600a612bff565b817fd2aa34a4fdbbc6dff6a3e56f46e0f3ae2a31d7785ff3487aa5c95c642acea5013334604051611f63929190615197565b60405180910390a25b50600160078190555050565b611f8a611f83612b3e565b83836135fd565b5050565b600b60009054906101000a900473ffffffffffffffffffffffffffffffffffffffff1673ffffffffffffffffffffffffffffffffffffffff163373ffffffffffffffffffffffffffffffffffffffff161461201e576040517f08c379a00000000000000000000000000000000000000000000000000000000081526004016120159061520c565b60405180910390fd5b80600c8190555050565b612039612033612b3e565b83613301565b612078576040517f08c379a000000000000000000000000000000000000000000000000000000000815260040161206f90614be5565b60405180910390fd5b6120848484848461376a565b50505050565b600260075414156120d0576040517f08c379a00000000000000000000000000000000000000000000000000000000081526004016120c790614fc7565b60405180910390fd5b60026007819055506000600d6000838152602001908152602001600020905080600b0160009054906101000a900460ff168015612141575060018081111561211b5761211a614417565b5b8160050160009054906101000a900460ff16600181111561213f5761213e614417565b5b145b612180576040517f08c379a000000000000000000000000000000000000000000000000000000000815260040161217790615033565b60405180910390fd5b80600a01544210156121c7576040517f08c379a00000000000000000000000000000000000000000000000000000000081526004016121be90615278565b60405180910390fd5b600081600b0160006101000a81548160ff021916908315150217905550600073ffffffffffffffffffffffffffffffffffffffff168160090160009054906101000a900473ffffffffffffffffffffffffffffffffffffffff1673ffffffffffffffffffffffffffffffffffffffff161461234f5761226f308260090160009054906101000a900473ffffffffffffffffffffffffffffffffffffffff168360010154613396565b8060020160009054906101000a900473ffffffffffffffffffffffffffffffffffffffff1673ffffffffffffffffffffffffffffffffffffffff166108fc82600801549081150290604051600060405180830381858888f193505050501580156122dd573d6000803e3d6000fd5b506122e8600a612bff565b817fd2aa34a4fdbbc6dff6a3e56f46e0f3ae2a31d7785ff3487aa5c95c642acea5018260090160009054906101000a900473ffffffffffffffffffffffffffffffffffffffff168360080154604051612342929190615197565b60405180910390a2612383565b612382308260020160009054906101000a900473ffffffffffffffffffffffffffffffffffffffff168360010154613396565b5b50600160078190555050565b600260075414156123d5576040517f08c379a00000000000000000000000000000000000000000000000000000000081526004016123cc90614fc7565b60405180910390fd5b60026007819055506000600d6000838152602001908152602001600020905080600b0160009054906101000a900460ff16801561244757506000600181111561242157612420614417565b5b8160050160009054906101000a900460ff16600181111561244557612444614417565b5b145b612486576040517f08c379a000000000000000000000000000000000000000000000000000000000815260040161247d906152e4565b60405180910390fd5b806004015434146124cc576040517f08c379a00000000000000000000000000000000000000000000000000000000081526004016124c390615350565b60405180910390fd5b600081600b0160006101000a81548160ff021916908315150217905550338160030160006101000a81548173ffffffffffffffffffffffffffffffffffffffff021916908373ffffffffffffffffffffffffffffffffffffffff160217905550612536600a612bff565b61254530338360010154613396565b600b60009054906101000a900473ffffffffffffffffffffffffffffffffffffffff1673ffffffffffffffffffffffffffffffffffffffff166108fc600c549081150290604051600060405180830381858888f193505050501580156125af573d6000803e3d6000fd5b508060020160009054906101000a900473ffffffffffffffffffffffffffffffffffffffff1673ffffffffffffffffffffffffffffffffffffffff166108fc349081150290604051600060405180830381858888f1935050505015801561261a573d6000803e3d6000fd5b508060010154827f57ad21c878eba5fcc454fff36891186036413f92cf3dc39e977de44a87abd6268360020160009054906101000a900473ffffffffffffffffffffffffffffffffffffffff163334604051612678939291906153cf565b60405180910390a350600160078190555050565b606061269782612af3565b60006006600084815260200190815260200160002080546126b790614a1d565b80601f01602080910402602001604051908101604052809291908181526020018280546126e390614a1d565b80156127305780601f1061270557610100808354040283529160200191612730565b820191906000526020600020905b81548152906001019060200180831161271357829003601f168201915b5050505050905060006127416137c6565b905060008151141561275757819250505061279a565b60008251111561278c578082604051602001612774929190615442565b6040516020818303038152906040529250505061279a565b612795846137dd565b925050505b919050565b600f600082815260200190815260200160002060003373ffffffffffffffffffffffffffffffffffffffff1673ffffffffffffffffffffffffffffffffffffffff16815260200190815260200160002060009054906101000a900460ff161561283d576040517f08c379a0000000000000000000000000000000000000000000000000000000008152600401612834906154b2565b60405180910390fd5b6001600f600083815260200190815260200160002060003373ffffffffffffffffffffffffffffffffffffffff1673ffffffffffffffffffffffffffffffffffffffff16815260200190815260200160002060006101000a81548160ff021916908315150217905550601060003373ffffffffffffffffffffffffffffffffffffffff1673ffffffffffffffffffffffffffffffffffffffff1681526020019081526020016000208190806001815401808255809150506001900390600052602060002001600090919091909150556000600190505b61291d6009612c15565b81116129ad5781600d6000838152602001908152602001600020600101541480156129685750600d6000828152602001908152602001600020600b0160009054906101000a900460ff165b1561299a57600d6000828152602001908152602001600020600c01600081548092919061299490614c34565b91905055505b80806129a590614c34565b915050612913565b503373ffffffffffffffffffffffffffffffffffffffff16817f33b9fbbea4bdf2908e60b2c5b3e03a48b84e7829121aa1720d98d6125b60605c60405160405180910390a350565b6000600560008473ffffffffffffffffffffffffffffffffffffffff1673ffffffffffffffffffffffffffffffffffffffff16815260200190815260200160002060008373ffffffffffffffffffffffffffffffffffffffff1673ffffffffffffffffffffffffffffffffffffffff16815260200190815260200160002060009054906101000a900460ff16905092915050565b60007f01ffc9a7000000000000000000000000000000000000000000000000000000007bffffffffffffffffffffffffffffffffffffffffffffffffffffffff1916827bffffffffffffffffffffffffffffffffffffffffffffffffffffffff1916149050919050565b612afc81613845565b612b3b576040517f08c379a0000000000000000000000000000000000000000000000000000000008152600401612b3290614cf8565b60405180910390fd5b50565b600033905090565b816004600083815260200190815260200160002060006101000a81548173ffffffffffffffffffffffffffffffffffffffff021916908373ffffffffffffffffffffffffffffffffffffffff160217905550808273ffffffffffffffffffffffffffffffffffffffff16612bb983611435565b73ffffffffffffffffffffffffffffffffffffffff167f8c5be1e5ebec7d5bd14f71427d1e84f3dd0314c0f7b2291e5b200ac8c7c3b92560405160405180910390a45050565b6001816000016000828254019250508190555050565b600081600001549050919050565b600073ffffffffffffffffffffffffffffffffffffffff168273ffffffffffffffffffffffffffffffffffffffff161415612c93576040517f08c379a0000000000000000000000000000000000000000000000000000000008152600401612c8a9061551e565b60405180910390fd5b612c9c81613845565b15612cdc576040517f08c379a0000000000000000000000000000000000000000000000000000000008152600401612cd39061558a565b60405180910390fd5b612ce8600083836138b1565b6001600360008473ffffffffffffffffffffffffffffffffffffffff1673ffffffffffffffffffffffffffffffffffffffff1681526020019081526020016000206000828254612d3891906155aa565b92505081905550816002600083815260200190815260200160002060006101000a81548173ffffffffffffffffffffffffffffffffffffffff021916908373ffffffffffffffffffffffffffffffffffffffff160217905550808273ffffffffffffffffffffffffffffffffffffffff16600073ffffffffffffffffffffffffffffffffffffffff167fddf252ad1be2c89b69c2b068fc378daa952ba7f163c4a11628f55a4df523b3ef60405160405180910390a4612df9600083836138b6565b5050565b612e0682613845565b612e45576040517f08c379a0000000000000000000000000000000000000000000000000000000008152600401612e3c90615672565b60405180910390fd5b80600660008481526020019081526020016000209080519060200190612e6c929190613c94565b505050565b600c543414612eb5576040517f08c379a0000000000000000000000000000000000000000000000000000000008152600401612eac90615704565b60405180910390fd5b60006001811115612ec957612ec8614417565b5b846001811115612edc57612edb614417565b5b1415612f2a5760008511612f25576040517f08c379a0000000000000000000000000000000000000000000000000000000008152600401612f1c90615770565b60405180910390fd5b612ffc565b60008311612f6d576040517f08c379a0000000000000000000000000000000000000000000000000000000008152600401612f6490615802565b60405180910390fd5b60008214612fb857828211612fb7576040517f08c379a0000000000000000000000000000000000000000000000000000000008152600401612fae90615894565b60405180910390fd5b5b60008111612ffb576040517f08c379a0000000000000000000000000000000000000000000000000000000008152600401612ff290615926565b60405180910390fd5b5b6130066009612bff565b60006130126009612c15565b9050604051806101a001604052808281526020018881526020013373ffffffffffffffffffffffffffffffffffffffff1681526020013073ffffffffffffffffffffffffffffffffffffffff16815260200187815260200186600181111561307d5761307c614417565b5b815260200185815260200184815260200160008152602001600073ffffffffffffffffffffffffffffffffffffffff1681526020016001808111156130c5576130c4614417565b5b8760018111156130d8576130d7614417565b5b146130e45760006130f1565b83426130f091906155aa565b5b81526020016001151581526020016000815250600d6000838152602001908152602001600020600082015181600001556020820151816001015560408201518160020160006101000a81548173ffffffffffffffffffffffffffffffffffffffff021916908373ffffffffffffffffffffffffffffffffffffffff16021790555060608201518160030160006101000a81548173ffffffffffffffffffffffffffffffffffffffff021916908373ffffffffffffffffffffffffffffffffffffffff1602179055506080820151816004015560a08201518160050160006101000a81548160ff021916908360018111156131ee576131ed614417565b5b021790555060c0820151816006015560e0820151816007015561010082015181600801556101208201518160090160006101000a81548173ffffffffffffffffffffffffffffffffffffffff021916908373ffffffffffffffffffffffffffffffffffffffff16021790555061014082015181600a015561016082015181600b0160006101000a81548160ff02191690831515021790555061018082015181600c015590505061329f333089613396565b86817ff3ecdd21520968778184df55bad67ce7a825372f8b1e3c54f24c56554e570d313389898989600d60008a8152602001908152602001600020600a01546040516132f096959493929190615955565b60405180910390a350505050505050565b60008061330d83611435565b90508073ffffffffffffffffffffffffffffffffffffffff168473ffffffffffffffffffffffffffffffffffffffff16148061334f575061334e81856129f5565b5b8061338d57508373ffffffffffffffffffffffffffffffffffffffff1661337584610770565b73ffffffffffffffffffffffffffffffffffffffff16145b91505092915050565b8273ffffffffffffffffffffffffffffffffffffffff166133b682611435565b73ffffffffffffffffffffffffffffffffffffffff161461340c576040517f08c379a000000000000000000000000000000000000000000000000000000000815260040161340390615a28565b60405180910390fd5b600073ffffffffffffffffffffffffffffffffffffffff168273ffffffffffffffffffffffffffffffffffffffff16141561347c576040517f08c379a000000000000000000000000000000000000000000000000000000000815260040161347390615aba565b60405180910390fd5b6134878383836138b1565b613492600082612b46565b6001600360008573ffffffffffffffffffffffffffffffffffffffff1673ffffffffffffffffffffffffffffffffffffffff16815260200190815260200160002060008282546134e29190614eee565b925050819055506001600360008473ffffffffffffffffffffffffffffffffffffffff1673ffffffffffffffffffffffffffffffffffffffff168152602001908152602001600020600082825461353991906155aa565b92505081905550816002600083815260200190815260200160002060006101000a81548173ffffffffffffffffffffffffffffffffffffffff021916908373ffffffffffffffffffffffffffffffffffffffff160217905550808273ffffffffffffffffffffffffffffffffffffffff168473ffffffffffffffffffffffffffffffffffffffff167fddf252ad1be2c89b69c2b068fc378daa952ba7f163c4a11628f55a4df523b3ef60405160405180910390a46135f88383836138b6565b505050565b8173ffffffffffffffffffffffffffffffffffffffff168373ffffffffffffffffffffffffffffffffffffffff16141561366c576040517f08c379a000000000000000000000000000000000000000000000000000000000815260040161366390615b26565b60405180910390fd5b80600560008573ffffffffffffffffffffffffffffffffffffffff1673ffffffffffffffffffffffffffffffffffffffff16815260200190815260200160002060008473ffffffffffffffffffffffffffffffffffffffff1673ffffffffffffffffffffffffffffffffffffffff16815260200190815260200160002060006101000a81548160ff0219169083151502179055508173ffffffffffffffffffffffffffffffffffffffff168373ffffffffffffffffffffffffffffffffffffffff167f17307eab39ab6107e8899845ad3d59bd9653f200f220920489ca2b5937696c318360405161375d9190613deb565b60405180910390a3505050565b613775848484613396565b613781848484846138bb565b6137c0576040517f08c379a00000000000000000000000000000000000000000000000000000000081526004016137b790615bb8565b60405180910390fd5b50505050565b606060405180602001604052806000815250905090565b60606137e882612af3565b60006137f26137c6565b90506000815111613812576040518060200160405280600081525061383d565b8061381c84613a52565b60405160200161382d929190615442565b6040516020818303038152906040525b915050919050565b60008073ffffffffffffffffffffffffffffffffffffffff166002600084815260200190815260200160002060009054906101000a900473ffffffffffffffffffffffffffffffffffffffff1673ffffffffffffffffffffffffffffffffffffffff1614159050919050565b505050565b505050565b60006138dc8473ffffffffffffffffffffffffffffffffffffffff16613bb3565b15613a45578373ffffffffffffffffffffffffffffffffffffffff1663150b7a02613905612b3e565b8786866040518563ffffffff1660e01b81526004016139279493929190615c2d565b602060405180830381600087803b15801561394157600080fd5b505af192505050801561397257506040513d601f19601f8201168201806040525081019061396f9190615c8e565b60015b6139f5573d80600081146139a2576040519150601f19603f3d011682016040523d82523d6000602084013e6139a7565b606091505b506000815114156139ed576040517f08c379a00000000000000000000000000000000000000000000000000000000081526004016139e490615bb8565b60405180910390fd5b805181602001fd5b63150b7a0260e01b7bffffffffffffffffffffffffffffffffffffffffffffffffffffffff1916817bffffffffffffffffffffffffffffffffffffffffffffffffffffffff191614915050613a4a565b600190505b949350505050565b60606000821415613a9a576040518060400160405280600181526020017f30000000000000000000000000000000000000000000000000000000000000008152509050613bae565b600082905060005b60008214613acc578080613ab590614c34565b915050600a82613ac59190615cea565b9150613aa2565b60008167ffffffffffffffff811115613ae857613ae7613ff6565b5b6040519080825280601f01601f191660200182016040528015613b1a5781602001600182028036833780820191505090505b5090505b60008514613ba757600182613b339190614eee565b9150600a85613b429190615d1b565b6030613b4e91906155aa565b60f81b818381518110613b6457613b63614c7d565b5b60200101907effffffffffffffffffffffffffffffffffffffffffffffffffffffffffffff1916908160001a905350600a85613ba09190615cea565b9450613b1e565b8093505050505b919050565b6000808273ffffffffffffffffffffffffffffffffffffffff163b119050919050565b604051806101a001604052806000815260200160008152602001600073ffffffffffffffffffffffffffffffffffffffff168152602001600073ffffffffffffffffffffffffffffffffffffffff1681526020016000815260200160006001811115613c4557613c44614417565b5b8152602001600081526020016000815260200160008152602001600073ffffffffffffffffffffffffffffffffffffffff16815260200160008152602001600015158152602001600081525090565b828054613ca090614a1d565b90600052602060002090601f016020900481019282613cc25760008555613d09565b82601f10613cdb57805160ff1916838001178555613d09565b82800160010185558215613d09579182015b82811115613d08578251825591602001919060010190613ced565b5b509050613d169190613d1a565b5090565b5b80821115613d33576000816000905550600101613d1b565b5090565b6000604051905090565b600080fd5b600080fd5b60007fffffffff0000000000000000000000000000000000000000000000000000000082169050919050565b613d8081613d4b565b8114613d8b57600080fd5b50565b600081359050613d9d81613d77565b92915050565b600060208284031215613db957613db8613d41565b5b6000613dc784828501613d8e565b91505092915050565b60008115159050919050565b613de581613dd0565b82525050565b6000602082019050613e006000830184613ddc565b92915050565b600081519050919050565b600082825260208201905092915050565b60005b83811015613e40578082015181840152602081019050613e25565b83811115613e4f576000848401525b50505050565b6000601f19601f8301169050919050565b6000613e7182613e06565b613e7b8185613e11565b9350613e8b818560208601613e22565b613e9481613e55565b840191505092915050565b60006020820190508181036000830152613eb98184613e66565b905092915050565b6000819050919050565b613ed481613ec1565b8114613edf57600080fd5b50565b600081359050613ef181613ecb565b92915050565b600060208284031215613f0d57613f0c613d41565b5b6000613f1b84828501613ee2565b91505092915050565b600073ffffffffffffffffffffffffffffffffffffffff82169050919050565b6000613f4f82613f24565b9050919050565b613f5f81613f44565b82525050565b6000602082019050613f7a6000830184613f56565b92915050565b613f8981613f44565b8114613f9457600080fd5b50565b600081359050613fa681613f80565b92915050565b60008060408385031215613fc357613fc2613d41565b5b6000613fd185828601613f97565b9250506020613fe285828601613ee2565b9150509250929050565b600080fd5b600080fd5b7f4e487b7100000000000000000000000000000000000000000000000000000000600052604160045260246000fd5b61402e82613e55565b810181811067ffffffffffffffff8211171561404d5761404c613ff6565b5b80604052505050565b6000614060613d37565b905061406c8282614025565b919050565b600067ffffffffffffffff82111561408c5761408b613ff6565b5b61409582613e55565b9050602081019050919050565b82818337600083830152505050565b60006140c46140bf84614071565b614056565b9050828152602081018484840111156140e0576140df613ff1565b5b6140eb8482856140a2565b509392505050565b600082601f83011261410857614107613fec565b5b81356141188482602086016140b1565b91505092915050565b6002811061412e57600080fd5b50565b60008135905061414081614121565b92915050565b60008060008060008060c0878903121561416357614162613d41565b5b600087013567ffffffffffffffff81111561418157614180613d46565b5b61418d89828a016140f3565b965050602061419e89828a01613ee2565b95505060406141af89828a01614131565b94505060606141c089828a01613ee2565b93505060806141d189828a01613ee2565b92505060a06141e289828a01613ee2565b9150509295509295509295565b6141f881613ec1565b82525050565b600060208201905061421360008301846141ef565b92915050565b60008060006060848603121561423257614231613d41565b5b600061424086828701613f97565b935050602061425186828701613f97565b925050604061426286828701613ee2565b9150509250925092565b600081519050919050565b600082825260208201905092915050565b6000819050602082019050919050565b6142a181613f44565b82525050565b6142b081613ec1565b82525050565b6060820160008201516142cc6000850182614298565b5060208201516142df60208501826142a7565b5060408201516142f260408501826142a7565b50505050565b600061430483836142b6565b60608301905092915050565b6000602082019050919050565b60006143288261426c565b6143328185614277565b935061433d83614288565b8060005b8381101561436e57815161435588826142f8565b975061436083614310565b925050600181019050614341565b5085935050505092915050565b60006020820190508181036000830152614395818461431d565b905092915050565b6000602082840312156143b3576143b2613d41565b5b60006143c184828501613f97565b91505092915050565b600081519050919050565b600082825260208201905092915050565b6000819050602082019050919050565b600061440182613f24565b9050919050565b614411816143f6565b82525050565b7f4e487b7100000000000000000000000000000000000000000000000000000000600052602160045260246000fd5b6002811061445757614456614417565b5b50565b600081905061446882614446565b919050565b60006144788261445a565b9050919050565b6144888161446d565b82525050565b61449781613dd0565b82525050565b6101a0820160008201516144b460008501826142a7565b5060208201516144c760208501826142a7565b5060408201516144da6040850182614408565b5060608201516144ed6060850182614408565b50608082015161450060808501826142a7565b5060a082015161451360a085018261447f565b5060c082015161452660c08501826142a7565b5060e082015161453960e08501826142a7565b5061010082015161454e6101008501826142a7565b50610120820151614563610120850182614298565b506101408201516145786101408501826142a7565b5061016082015161458d61016085018261448e565b506101808201516145a26101808501826142a7565b50505050565b60006145b4838361449d565b6101a08301905092915050565b6000602082019050919050565b60006145d9826143ca565b6145e381856143d5565b93506145ee836143e6565b8060005b8381101561461f57815161460688826145a8565b9750614611836145c1565b9250506001810190506145f2565b5085935050505092915050565b600081519050919050565b600082825260208201905092915050565b6000819050602082019050919050565b600061466483836142a7565b60208301905092915050565b6000602082019050919050565b60006146888261462c565b6146928185614637565b935061469d83614648565b8060005b838110156146ce5781516146b58882614658565b97506146c083614670565b9250506001810190506146a1565b5085935050505092915050565b600060808201905081810360008301526146f581876145ce565b9050818103602083015261470981866145ce565b9050818103604083015261471d81856145ce565b90508181036060830152614731818461467d565b905095945050505050565b600080600080600080600060e0888a03121561475b5761475a613d41565b5b60006147698a828b01613ee2565b975050602061477a8a828b01613ee2565b965050604061478b8a828b01613ee2565b955050606061479c8a828b01614131565b94505060806147ad8a828b01613ee2565b93505060a06147be8a828b01613ee2565b92505060c06147cf8a828b01613ee2565b91505092959891949750929550565b600080604083850312156147f5576147f4613d41565b5b600061480385828601613ee2565b925050602061481485828601613f97565b9150509250929050565b61482781613dd0565b811461483257600080fd5b50565b6000813590506148448161481e565b92915050565b6000806040838503121561486157614860613d41565b5b600061486f85828601613f97565b925050602061488085828601614835565b9150509250929050565b600067ffffffffffffffff8211156148a5576148a4613ff6565b5b6148ae82613e55565b9050602081019050919050565b60006148ce6148c98461488a565b614056565b9050828152602081018484840111156148ea576148e9613ff1565b5b6148f58482856140a2565b509392505050565b600082601f83011261491257614911613fec565b5b81356149228482602086016148bb565b91505092915050565b6000806000806080858703121561494557614944613d41565b5b600061495387828801613f97565b945050602061496487828801613f97565b935050604061497587828801613ee2565b925050606085013567ffffffffffffffff81111561499657614995613d46565b5b6149a2878288016148fd565b91505092959194509250565b600080604083850312156149c5576149c4613d41565b5b60006149d385828601613f97565b92505060206149e485828601613f97565b9150509250929050565b7f4e487b7100000000000000000000000000000000000000000000000000000000600052602260045260246000fd5b60006002820490506001821680614a3557607f821691505b60208210811415614a4957614a486149ee565b5b50919050565b7f4552433732313a20617070726f76616c20746f2063757272656e74206f776e6560008201527f7200000000000000000000000000000000000000000000000000000000000000602082015250565b6000614aab602183613e11565b9150614ab682614a4f565b604082019050919050565b60006020820190508181036000830152614ada81614a9e565b9050919050565b7f4552433732313a20617070726f76652063616c6c6572206973206e6f7420746f60008201527f6b656e206f776e6572206e6f7220617070726f76656420666f7220616c6c0000602082015250565b6000614b3d603e83613e11565b9150614b4882614ae1565b604082019050919050565b60006020820190508181036000830152614b6c81614b30565b9050919050565b7f4552433732313a2063616c6c6572206973206e6f7420746f6b656e206f776e6560008201527f72206e6f7220617070726f766564000000000000000000000000000000000000602082015250565b6000614bcf602e83613e11565b9150614bda82614b73565b604082019050919050565b60006020820190508181036000830152614bfe81614bc2565b9050919050565b7f4e487b7100000000000000000000000000000000000000000000000000000000600052601160045260246000fd5b6000614c3f82613ec1565b91507fffffffffffffffffffffffffffffffffffffffffffffffffffffffffffffffff821415614c7257614c71614c05565b5b600182019050919050565b7f4e487b7100000000000000000000000000000000000000000000000000000000600052603260045260246000fd5b7f4552433732313a20696e76616c696420746f6b656e2049440000000000000000600082015250565b6000614ce2601883613e11565b9150614ced82614cac565b602082019050919050565b60006020820190508181036000830152614d1181614cd5565b9050919050565b7f4f6e6c7920746f6b656e206f776e65722063616e20726573656c6c0000000000600082015250565b6000614d4e601b83613e11565b9150614d5982614d18565b602082019050919050565b60006020820190508181036000830152614d7d81614d41565b9050919050565b7f4d75737420706179206c697374696e6720707269636500000000000000000000600082015250565b6000614dba601683613e11565b9150614dc582614d84565b602082019050919050565b60006020820190508181036000830152614de981614dad565b9050919050565b7f4552433732313a2061646472657373207a65726f206973206e6f74206120766160008201527f6c6964206f776e65720000000000000000000000000000000000000000000000602082015250565b6000614e4c602983613e11565b9150614e5782614df0565b604082019050919050565b60006020820190508181036000830152614e7b81614e3f565b9050919050565b7f4e6f74206c696b65640000000000000000000000000000000000000000000000600082015250565b6000614eb8600983613e11565b9150614ec382614e82565b602082019050919050565b60006020820190508181036000830152614ee781614eab565b9050919050565b6000614ef982613ec1565b9150614f0483613ec1565b925082821015614f1757614f16614c05565b5b828203905092915050565b7f4e487b7100000000000000000000000000000000000000000000000000000000600052603160045260246000fd5b6000614f5c82613ec1565b91506000821415614f7057614f6f614c05565b5b600182039050919050565b7f5265656e7472616e637947756172643a207265656e7472616e742063616c6c00600082015250565b6000614fb1601f83613e11565b9150614fbc82614f7b565b602082019050919050565b60006020820190508181036000830152614fe081614fa4565b9050919050565b7f496e76616c69642061756374696f6e0000000000000000000000000000000000600082015250565b600061501d600f83613e11565b915061502882614fe7565b602082019050919050565b6000602082019050818103600083015261504c81615010565b9050919050565b7f41756374696f6e20656e64656400000000000000000000000000000000000000600082015250565b6000615089600d83613e11565b915061509482615053565b602082019050919050565b600060208201905081810360008301526150b88161507c565b9050919050565b7f42696420746f6f206c6f77000000000000000000000000000000000000000000600082015250565b60006150f5600b83613e11565b9150615100826150bf565b602082019050919050565b60006020820190508181036000830152615124816150e8565b9050919050565b7f4269642062656c6f772073746172742070726963650000000000000000000000600082015250565b6000615161601583613e11565b915061516c8261512b565b602082019050919050565b6000602082019050818103600083015261519081615154565b9050919050565b60006040820190506151ac6000830185613f56565b6151b960208301846141ef565b9392505050565b7f4f6e6c79206f776e657200000000000000000000000000000000000000000000600082015250565b60006151f6600a83613e11565b9150615201826151c0565b602082019050919050565b60006020820190508181036000830152615225816151e9565b9050919050565b7f41756374696f6e2063616e6e6f7420626520656e646564207965740000000000600082015250565b6000615262601b83613e11565b915061526d8261522c565b602082019050919050565b6000602082019050818103600083015261529181615255565b9050919050565b7f496e76616c6964206c697374696e670000000000000000000000000000000000600082015250565b60006152ce600f83613e11565b91506152d982615298565b602082019050919050565b600060208201905081810360008301526152fd816152c1565b9050919050565b7f57726f6e67207072696365000000000000000000000000000000000000000000600082015250565b600061533a600b83613e11565b915061534582615304565b602082019050919050565b600060208201905081810360008301526153698161532d565b9050919050565b6000819050919050565b600061539561539061538b84613f24565b615370565b613f24565b9050919050565b60006153a78261537a565b9050919050565b60006153b98261539c565b9050919050565b6153c9816153ae565b82525050565b60006060820190506153e460008301866153c0565b6153f16020830185613f56565b6153fe60408301846141ef565b949350505050565b600081905092915050565b600061541c82613e06565b6154268185615406565b9350615436818560208601613e22565b80840191505092915050565b600061544e8285615411565b915061545a8284615411565b91508190509392505050565b7f416c7265616479206c696b656400000000000000000000000000000000000000600082015250565b600061549c600d83613e11565b91506154a782615466565b602082019050919050565b600060208201905081810360008301526154cb8161548f565b9050919050565b7f4552433732313a206d696e7420746f20746865207a65726f2061646472657373600082015250565b6000615508602083613e11565b9150615513826154d2565b602082019050919050565b60006020820190508181036000830152615537816154fb565b9050919050565b7f4552433732313a20746f6b656e20616c7265616479206d696e74656400000000600082015250565b6000615574601c83613e11565b915061557f8261553e565b602082019050919050565b600060208201905081810360008301526155a381615567565b9050919050565b60006155b582613ec1565b91506155c083613ec1565b9250827fffffffffffffffffffffffffffffffffffffffffffffffffffffffffffffffff038211156155f5576155f4614c05565b5b828201905092915050565b7f45524337323155524953746f726167653a2055524920736574206f66206e6f6e60008201527f6578697374656e7420746f6b656e000000000000000000000000000000000000602082015250565b600061565c602e83613e11565b915061566782615600565b604082019050919050565b6000602082019050818103600083015261568b8161564f565b9050919050565b7f5072696365206d75737420626520657175616c20746f206c697374696e67207060008201527f7269636500000000000000000000000000000000000000000000000000000000602082015250565b60006156ee602483613e11565b91506156f982615692565b604082019050919050565b6000602082019050818103600083015261571d816156e1565b9050919050565b7f5072696365206d757374206265206174206c6561737420312077656900000000600082015250565b600061575a601c83613e11565b915061576582615724565b602082019050919050565b600060208201905081810360008301526157898161574d565b9050919050565b7f5374617274207072696365206d757374206265206174206c656173742031207760008201527f6569000000000000000000000000000000000000000000000000000000000000602082015250565b60006157ec602283613e11565b91506157f782615790565b604082019050919050565b6000602082019050818103600083015261581b816157df565b9050919050565b7f4275796f7574207072696365206d75737420626520677265617465722074686160008201527f6e20737461727420707269636500000000000000000000000000000000000000602082015250565b600061587e602d83613e11565b915061588982615822565b604082019050919050565b600060208201905081810360008301526158ad81615871565b9050919050565b7f41756374696f6e206475726174696f6e206d757374206265206772656174657260008201527f207468616e203000000000000000000000000000000000000000000000000000602082015250565b6000615910602783613e11565b915061591b826158b4565b604082019050919050565b6000602082019050818103600083015261593f81615903565b9050919050565b61594f8161446d565b82525050565b600060c08201905061596a6000830189613f56565b61597760208301886141ef565b6159846040830187615946565b61599160608301866141ef565b61599e60808301856141ef565b6159ab60a08301846141ef565b979650505050505050565b7f4552433732313a207472616e736665722066726f6d20696e636f72726563742060008201527f6f776e6572000000000000000000000000000000000000000000000000000000602082015250565b6000615a12602583613e11565b9150615a1d826159b6565b604082019050919050565b60006020820190508181036000830152615a4181615a05565b9050919050565b7f4552433732313a207472616e7366657220746f20746865207a65726f2061646460008201527f7265737300000000000000000000000000000000000000000000000000000000602082015250565b6000615aa4602483613e11565b9150615aaf82615a48565b604082019050919050565b60006020820190508181036000830152615ad381615a97565b9050919050565b7f4552433732313a20617070726f766520746f2063616c6c657200000000000000600082015250565b6000615b10601983613e11565b9150615b1b82615ada565b602082019050919050565b60006020820190508181036000830152615b3f81615b03565b9050919050565b7f4552433732313a207472616e7366657220746f206e6f6e20455243373231526560008201527f63656976657220696d706c656d656e7465720000000000000000000000000000602082015250565b6000615ba2603283613e11565b9150615bad82615b46565b604082019050919050565b60006020820190508181036000830152615bd181615b95565b9050919050565b600081519050919050565b600082825260208201905092915050565b6000615bff82615bd8565b615c098185615be3565b9350615c19818560208601613e22565b615c2281613e55565b840191505092915050565b6000608082019050615c426000830187613f56565b615c4f6020830186613f56565b615c5c60408301856141ef565b8181036060830152615c6e8184615bf4565b905095945050505050565b600081519050615c8881613d77565b92915050565b600060208284031215615ca457615ca3613d41565b5b6000615cb284828501615c79565b91505092915050565b7f4e487b7100000000000000000000000000000000000000000000000000000000600052601260045260246000fd5b6000615cf582613ec1565b9150615d0083613ec1565b925082615d1057615d0f615cbb565b5b828204905092915050565b6000615d2682613ec1565b9150615d3183613ec1565b925082615d4157615d40615cbb565b5b82820690509291505056fea2646970667358221220c0322a8e5c3399c6d1d6fcb936fd472f24cd20471b828a2906a5a49dcf15254a64736f6c63430008090033",
  "linkReferences": {},
  "deployedLinkReferences": {}
}